:020000040800F2
:1000000000500020D51300084113000847130008D2
:100010004D13000853130008591300080000000096
:100020000000000000000000000000005F13000856
:100030006B1300080000000077130008831300080A
:100040001D1400081D1400081D1400081D140008CC
:100050001D1400081D1400081D1400081D140008BC
:100060001D1400081D1400081D1400081D140008AC
:100070001D1400081D1400081D1400081D1400089C
:100080001D1400081D1400081D1400081D1400088C
:100090001D1400081D1400081D1400081D1400087C
:1000A0001D1400081D1400081D1400081D1400086C
:1000B000911300081D1400081D1400081D140008E9
:1000C0001D1400081D1400081D1400081D1400084C
:1000D0001D1400081D1400081D1400081D1400083C
:1000E0001D1400081D1400081D1400080000000065
:1000F0000000000000000000000000000000000000
:0C01000000000000000000005FF808F1A3
:10010C0010B5054C237833B9044B13B10448AFF345
:10011C0000800123237010BD280000200000000087
:10012C00B42A000808B5034B1BB103490348AFF3CD
:10013C00008008BD000000002C000020B42A00083C
:10014C0080B582B000AF78607B68032B4AD801A2DF
:10015C0052F823F0D1010008710100089101000848
:10016C00B101000800220121204801F05EFC0122AF
:10017C0002211E4801F059FC012210211B4801F0FC
:10018C0054FC2FE001220121184801F04EFC002202
:10019C000221164801F049FC01221021134801F0FC
:1001AC0044FC1FE001220121104801F03EFC012219
:1001BC0002210E4801F039FC002210210B4801F0FD
:1001CC0034FC0FE001220121084801F02EFC012231
:1001DC000221064801F029FC01221021034801F0FC
:1001EC0024FC00BF00BF0837BD4680BD000801409D
:1001FC0080B582B000AF78607B68032B4AD801A22F
:10020C0052F823F081020008210200084102000884
:10021C006102000800220121204801F006FC0122A5
:10022C0002211F4801F001FC012201211C4801F0B0
:10023C00FCFB2FE001220121184801F0F6FB002203
:10024C000221174801F0F1FB01220121144801F0B1
:10025C00ECFB1FE001220121104801F0E6FB01221A
:10026C0002210F4801F0E1FB002201210C4801F0B2
:10027C00DCFB0FE001220121084801F0D6FB012232
:10028C000221074801F0D1FB01220121044801F0B1
:10029C00CCFB00BF00BF0837BD4680BD000C014041
:1002AC000010014080B582B000AF78607B68012BF4
:1002BC0009D0012201212C4801F0B7FB01220121B8
:1002CC002A4801F0B2FB7B68022B09D001220221E3
:1002DC00254801F0AAFB01220221254801F0A5FBCB
:1002EC007B68032B09D0012210211F4801F09DFBD4
:1002FC00012201211E4801F098FB1E4B9B68012B2B
:10030C002CD102214FF4FA7000F072FF7B68032BA2
:10031C001BD07B68032B22DC7B68012B03D07B6812
:10032C00022B09D01BE001210F4801F096FB0121A3
:10033C000E4801F092FB12E002210B4801F08DFBFC
:10034C0002210B4801F089FB09E01021064801F05D
:10035C0084FB0121064801F080FB00E000BF00BFD8
:10036C000837BD4680BD00BF00080140000C0140AD
:10037C0000100140EC00002080B582B000AF786026
:10038C007B681B68DBB21A4680211F4801F04DFBCD
:10039C007B6804331B68DBB21A4640211B4801F012
:1003AC0044FB7B6808331B68DBB21A468021184873
:1003BC0001F03BFB7B680C331B68DBB21A46402117
:1003CC00134801F032FB7B6810331B68DBB21A4612
:1003DC0020210F4801F029FB7B6814331B68DBB22A
:1003EC001A464FF40071094801F01FFB7B68183363
:1003FC001B68DBB21A464FF48071044801F015FB00
:10040C0000BF0837BD4680BD00100140000C014004
:10041C0000080140B0B5D0B000AF07F5A073A3F54C
:10042C009E73186007F5A073A3F59E731B68092BC8
:10043C0000F2ED8001A252F823F000BF7104000815
:10044C00A7040008C7040008E70400080705000813
:10045C0027050008470500087B0500089B050008D8
:10046C00BB0500080023C7F824310023C7F8283146
:10047C000023C7F82C310023C7F830310023C7F80C
:10048C0034310023C7F838310123C7F83C3107F564
:10049C0092731846FFF770FFE9E0774B07F5847409
:1004AC001D460FCD0FC495E8070084E8070007F53B
:1004BC0084731846FFF760FFD9E0704B07F1EC042A
:1004CC001D460FCD0FC495E8070084E8070007F11F
:1004DC00EC031846FFF750FFC9E0694B07F1D00455
:1004EC001D460FCD0FC495E8070084E8070007F1FF
:1004FC00D0031846FFF740FFB9E0624B07F1B40494
:10050C001D460FCD0FC495E8070084E8070007F1DE
:10051C00B4031846FFF730FFA9E05B4B07F19804D2
:10052C001D460FCD0FC495E8070084E8070007F1BE
:10053C0098031846FFF720FF99E00023FB6701237F
:10054C00C7F880300023C7F884300023C7F8883000
:10055C000023C7F88C300023C7F890300023C7F86D
:10056C00943007F17C031846FFF706FF7FE0474BFA
:10057C0007F160041D460FCD0FC495E8070084E811
:10058C00070007F160031846FFF7F6FE6FE007F16E
:10059C00440300221A605A609A60DA601A615A6148
:1005AC009A6107F144031846FFF7E6FE5FE007F592
:1005BC00A073A3F58C7300221A6007F5A073A3F542
:1005CC008C7300225A6007F5A073A3F58C7300227C
:1005DC009A6007F5A073A3F58C730022DA6007F517
:1005EC00A073A3F58C7301221A6107F5A073A3F510
:1005FC008C7300225A6107F5A073A3F58C7300224B
:10060C009A6107F128031846FFF7B6FE2FE007F5AD
:10061C00A073A3F59A7300221A6007F5A073A3F5D3
:10062C009A7300225A6007F5A073A3F59A730022FF
:10063C009A6007F5A073A3F59A730022DA6007F5A8
:10064C00A073A3F59A7300221A6107F5A073A3F5A2
:10065C009A7300225A6107F5A073A3F59A730122CD
:10066C009A6107F10C031846FFF786FE00BF00BF26
:10067C0007F5A077BD46B0BDCC2A0008E82A0008D3
:10068C00042B0008202B00083C2B0008582B0008DA
:10069C0080B582B000AF7860474B1B680422934250
:1006AC0002DB454B00221A607B68032B7ED801A22B
:1006BC0052F823F0D10600080B0700084507000884
:1006CC007F070008002210213C4801F0AEF90122FE
:1006DC004FF48061394801F0A8F901224FF4807180
:1006EC00374801F0A2F901224FF40071344801F0AF
:1006FC009CF9344B1B681846FFF78CFE57E001221F
:10070C0010212E4801F091F900224FF480612B4802
:10071C0001F08BF901224FF48071294801F085F921
:10072C0001224FF40071264801F07FF9254B5B68DC
:10073C001846FFF76FFE3AE0012210211F4801F026
:10074C0074F901224FF480611C4801F06EF900220B
:10075C004FF480711A4801F068F901224FF40071CE
:10076C00174801F062F9174B9B681846FFF752FEC9
:10077C001DE001221021114801F057F901224FF41C
:10078C0080610E4801F051F901224FF480710C4840
:10079C0001F04BF900224FF40071094801F045F9C2
:1007AC00084BDB681846FFF735FE00E000BF00BFC2
:1007BC000837BD4680BD00BF44000020000C01403E
:1007CC00000801404800002080B584B000AF78607C
:1007DC000023FB600BE0FB689B007A6813441A68EB
:1007EC000F49FB6841F82320FB680133FB600422AE
:1007FC00FB689342EFDB0B4B5B68012B0BD10121A8
:10080C00012000F0F5FC084B1B685A1C06490A60D5
:10081C001846FFF73DFF00BF1037BD4680BD00BF37
:10082C0048000020EC0000204400002080B584B07B
:10083C0000AF084B00221A603B4600221A605A6037
:10084C009A60DA603B461846FFF7BEFF00BF1037D0
:10085C00BD4680BD4400002080B500AF03214FF49D
:10086C007A7000F0C5FC4FF40041124801F0F5F825
:10087C00114B00221A60114B00221A60104B0022FF
:10088C001A60104B00221A600020FFF759FC002060
:10089C00FFF7AEFCFFF7CAFF0B4B1B680B4A13604C
:1008AC000B4B1B680B4A13600B4B1B680B4A1360FA
:1008BC0000BF80BD000C01406000002064000020DF
:1008CC00580000205C000020000000207800002070
:1008DC00040000207C000020080000208000002084
:1008EC0080B500AF734B1968734B83FB01239A10CF
:1008FC00CB17D21A13469B0013445B00CA1A6F4BDA
:10090C005A606C4B1A686D4B5B68D31A6A4A82FB4F
:10091C0003129210DB17D31A684A1360684B1968DC
:10092C00654B83FB01239A10CB17D21A13469B00FD
:10093C0013445B00CA1A614BDA60614B1A685F4B57
:10094C00DB68D31A5C4A82FB03129210DB17D31AB2
:10095C005A4A93605948FFF737FF5A4B1B68012BD3
:10096C000ED100214FF47A7000F042FC514B1B6801
:10097C00013B504A1360524B1B68013B504A1360B9
:10098C00514B1B68032B47D801A252F823F000BF30
:10099C00AD090008CB090008070A0008E90900089E
:1009AC00444B1B68002B06DA474B01221A60474B5D
:1009BC001B68404A13600020FFF7C2FB2CE03D4B44
:1009CC001B68002B06DA404B03221A60404B1B6855
:1009DC00384A13600120FFF7B3FB1DE0354B1B6851
:1009EC00002B06DA384B02221A603A4B1B68314A4C
:1009FC0013600320FFF7A4FB0EE02E4B1B68002BAB
:100A0C0006DA314B01221A60304B1B68294A1360FD
:100A1C000220FFF795FB00BF2F4B1B68032B47D819
:100A2C0001A252F823F000BF450A0008630A00082F
:100A3C009F0A0008810A0008214B1B68002B06DA6C
:100A4C00254B03221A60224B1B681D4A13600020A1
:100A5C00FFF7CEFB2CE01A4B1B68002B06DA1E4B63
:100A6C0003221A601A4B1B68154A13600120FFF70A
:100A7C00BFFB1DE0124B1B68002B06DA164B022243
:100A8C001A60144B1B680E4A13600320FFF7B0FB6F
:100A9C000EE00B4B1B68002B06DA0F4B01221A6081
:100AAC000A4B1B68064A13600220FFF7A1FB00BF2C
:100ABC0000BF80BD6000002067666666680000208D
:100ACC0064000020EC0000205800002000000020F2
:100ADC0008000020040000205C00002080B584B0D9
:100AEC0000AF00233B60414B1B68013B7B60002344
:100AFC00BB600023FB603D4B1B68013B032B71D893
:100B0C0001A252F823F000BF250B00082B0B0008A4
:100B1C006D0B0008AF0B0008FFF7E2FE62E001204E
:100B2C00FFF7C0FB324B1968324B83FB01239A1041
:100B3C00CB17D21A13469B0013445B00CA1AFA60F7
:100B4C002B4B1A68FB68D31A2A4A82FB03129210A9
:100B5C00DB17D31ABB603B461846FFF735FE41E066
:100B6C000220FFF79FFB244B1968224B83FB0123C8
:100B7C009A10CB17D21A13469B0013445B00CA1A67
:100B8C00FA601D4B1A68FB68D31A1A4A82FB0312CF
:100B9C009210DB17D31ABB603B461846FFF714FEC6
:100BAC0020E00320FFF77EFB144B1968114B83FBED
:100BBC0001239A10CB17D21A13469B0013445B00E7
:100BCC00CA1AFA600D4B1A68FB68D31A094A82FBE1
:100BDC0003129210DB17D31ABB603B461846FFF783
:100BEC00F3FD00BF00BF1037BD4680BD0C000020D8
:100BFC0078000020676666667C000020800000207C
:100C0C0080B500AF00214FF4FA6000F0F1FA012139
:100C1C004FF47A7000F0ECFA02214FF47A7000F085
:100C2C00E7FA03214FF47A7000F0E2FA00BF80BDBE
:100C3C0080B582B000AF00237B60CBE06A4A7B6852
:100C4C0013441B78022B00F0AF80022B00F3BF8003
:100C5C00002B03D0012B00F08B80B8E07B68DBB25B
:100C6C00184600F05FF90346002B79D05E4A7B688A
:100C7C00134401221A707B68032B00F2A38001A29B
:100C8C0052F823F0A10C0008BF0C0008FB0C000864
:100C9C00370D0008FFF7E0FD544B1B680133534A36
:100CAC001360524B1B68042B5CDD504B01221A6005
:100CBC0058E04E4B1B68042B12D0042B54DC022B37
:100CCC0002D0032B06D04FE0494B1B680133484A36
:100CDC0013600BE0474B1B680133464A136005E079
:100CEC00454B1B680133444A136000BF3CE03F4B4B
:100CFC001B68042B12D0042B38DC022B02D0032BE4
:100D0C0006D033E03A4B1B68013B394A13600BE0C9
:100D1C00384B1B68013B374A136005E0364B1B68A8
:100D2C00013B354A136000BF20E0314B1B68334A4E
:100D3C001360304B1B68324A13602F4B1B68314ACF
:100D4C0013602A4B1B680133284A1360274B1B681E
:100D5C00042B02DD254B01221A60FFF77DFD06E016
:100D6C0000BF2FE000BF2DE000BF2BE000BF29E04B
:100D7C007B68DBB2184600F0D5F80346002B05D192
:100D8C00194A7B68134400221A701DE07B68DBB2A1
:100D9C00184600F0E1F80346002B15D0124A7B6888
:100DAC00134402221A700FE07B68DBB2184600F085
:100DBC00B9F80346002B09D10B4A7B681344002277
:100DCC001A7003E000BF02E000BF00E000BF7B68C8
:100DDC0001337B607B68032B7FF730AFFFF77EFE20
:100DEC0000BF0837BD4680BD840000200C000020E9
:100DFC00780000207C0000208000002000000020F3
:100E0C00040000200800002090B583B000AF002340
:100E1C00FB7170E0FA79FB793B49895C3B4AD15410
:100E2C00FB79032B33D801A252F823F0490E0008AA
:100E3C005D0E0008710E0008870E0008FC79082171
:100E4C00334800F0DBFD03461A462F4B1A551EE0C3
:100E5C00FC7904212E4800F0D1FD03461A462A4B9A
:100E6C001A5514E0FC794FF48061294800F0C6FD56
:100E7C0003461A46244B1A5509E0FC7908212548EB
:100E8C0000F0BCFD03461A461F4B1A5500BFFB79F8
:100E9C001D4AD25CFB791D49CB5C9A4205D1FA798B
:100EAC00FB791949895C1C4AD154FB791A4AD35CE9
:100EBC00002B14D1FB79194A32F81330632B09D863
:100ECC00FB79164A32F81320013291B2134A22F8F8
:100EDC0013100DE0FB79124A0121D15408E0FB7983
:100EEC000E4A002122F81310FB790D4A0021D1542F
:100EFC00FB790133FB71FB79032B8BD900BF00BF4E
:100F0C000C37BD4690BD00BF140000201800002017
:100F1C0000080140000C0140100000208C00002053
:100F2C008800002080B483B000AF0346FB71FB79CE
:100F3C00032B01D9002307E0FB79064AD35C002B75
:100F4C000CBF01230023DBB218460C37BD4680BC16
:100F5C00704700BF1000002080B483B000AF034680
:100F6C00FB71FB79032B01D9FF2307E0FB79064AC0
:100F7C00D35C012B0CBF01230023DBB218460C37CA
:100F8C00BD4680BC704700BF8800002080B500AF14
:100F9C0000F040FA00F00EF800F094F800F046F87B
:100FAC00034801F0ABF9FFF72BFEFFF741FEFCE71E
:100FBC009400002080B590B000AF07F118032822F0
:100FCC000021184601F068FD3B1D00221A605A6092
:100FDC009A60DA601A610223BB610123BB621023A1
:100FEC00FB6200237B6307F11803184600F04EFDEB
:100FFC000346002B01D000F0F5F80F237B60002393
:10100C00BB600023FB604FF480633B6100237B617A
:10101C003B1D0021184600F0BBFF0346002B01D0FE
:10102C0000F0E0F800BF4037BD4680BD80B586B00B
:10103C0000AF07F1080300221A605A609A60DA6068
:10104C003B4600221A605A601D4B4FF080421A60DA
:10105C001B4B40F21F325A60194B00229A60184BFE
:10106C000922DA60164B00221A61154B00229A6194
:10107C00134801F0F3F80346002B01D000F0B2F84E
:10108C004FF48053BB6007F1080319460C4801F07C
:10109C008FFA0346002B01D000F0A4F800233B602C
:1010AC0000237B603B461946054801F061FC034672
:1010BC00002B01D000F096F800BF1837BD4680BD5C
:1010CC009400002080B588B000AF07F11003002217
:1010DC001A605A609A60DA603E4B9B693D4A43F055
:1010EC00100393613B4B9B6903F01003FB60FB689F
:1010FC00384B9B69374A43F004039361354B9B692A
:10110C0003F00403BB60BB68324B9B69314A43F06C
:10111C00080393612F4B9B6903F008037B607B688A
:10112C00002283212C4800F080FC002240F2F33195
:10113C002A4800F07AFC002248F27171284800F02D
:10114C0074FC83233B6101237B610023BB6102237D
:10115C00FB6107F1100319461F4800F0CBFA40F26F
:10116C00F3333B6101237B610023BB610223FB61F1
:10117C0007F110031946194800F0BCFA40F20C4371
:10118C003B6100237B610123BB6107F1100319460E
:10119C00124800F0AFFA48F271733B6101237B6196
:1011AC000023BB610223FB6107F1100319460C48B5
:1011BC0000F0A0FA08233B6100237B610123BB6193
:1011CC0007F110031946064800F094FA00BF2037C7
:1011DC00BD4680BD001002400010014000080140D7
:1011EC00000C014080B400AF72B600BFFEE70000F7
:1011FC0080B483B000AF7860396001227B6893FBC8
:10120C00F2F207493B6841F82320064A3B6800216B
:10121C0042F8231000BF0C37BD4680BC704700BF9E
:10122C00DC000020EC00002080B483B000AF002371
:10123C007B601CE0124A7B6852F82330002B13DDD4
:10124C000F4A7B6852F823305A1E0D497B6841F8CF
:10125C0023200B4A7B6852F82330002B04DC094A0C
:10126C007B68012142F823107B6801337B607B682B
:10127C00032BDFDD00BF00BF0C37BD4680BC7047C1
:10128C00DC000020EC00002080B485B000AF154BD2
:10129C009B69144A43F001039361124B9B6903F061
:1012AC000103BB60BB680F4BDB690E4A43F08053F4
:1012BC00D3610C4BDB6903F080537B607B680A4B7A
:1012CC005B68FB60FB6823F0E063FB60FB6843F04A
:1012DC000073FB60044AFB68536000BF1437BD46C3
:1012EC0080BC7047001002400000014080B584B003
:1012FC0000AF78607B681B68B3F1804F13D10C4B47
:10130C00DB690B4A43F00103D361094BDB6903F042
:10131C000103FB60FB68002200211C2000F0B3F9E4
:10132C001C2000F0CCF900BF1037BD4680BD00BFBB
:10133C000010024080B400AFFEE780B400AFFEE7BF
:10134C0080B400AFFEE780B400AFFEE780B400AF1E
:10135C00FEE780B400AF00BFBD4680BC704780B4D0
:10136C0000AF00BFBD4680BC704780B400AF00BF6B
:10137C00BD4680BC704780B500AF00F091F800BF4F
:10138C0080BD000080B500AF024801F009F800BF35
:10139C0080BD00BF9400002080B400AF00BFBD46EC
:1013AC0080BC704780B582B000AF78607B681B68EA
:1013BC00B3F1804F01D1FFF727FDFFF735FF00BFD9
:1013CC000837BD4680BD00000C480D490D4A00236E
:1013DC0002E0D458C4500433C4188C42F9D30A4ADE
:1013EC000A4C002301E013600432A242FBD3FFF746
:1013FC00D3FF01F02DFBFFF7C9FD70470000002063
:10140C00280000209C2B0008280000200001002050
:10141C00FEE7000080B500AF084B1B68074A43F09D
:10142C0010031360032000F023F9002000F008F8EB
:10143C00FFF72AFF0023184680BD00BF00200240A2
:10144C0080B582B000AF7860124B1A68124B1B78D3
:10145C0019464FF47A73B3FBF1F3B2FBF3F318466E
:10146C0000F03BF90346002B01D001230EE07B6812
:10147C000F2B0AD8002279684FF0FF3000F003F9E7
:10148C00064A7B681360002300E0012318460837E6
:10149C00BD4680BD1C000020240000202000002040
:1014AC0080B400AF054B1B781A46054B1B681344E0
:1014BC00034A136000BFBD4680BC70472400002067
:1014CC00FC00002080B400AF024B1B681846BD46E0
:1014DC0080BC7047FC00002080B485B000AF786001
:1014EC007B6803F00703FB600C4BDB68BB60BA68DE
:1014FC004FF6FF031340BB60FB681A02BB68134333
:10150C0043F0BF6343F40033BB60044ABB68D36051
:10151C0000BF1437BD4680BC704700BF00ED00E033
:10152C0080B400AF044BDB681B0A03F007031846BA
:10153C00BD4680BC704700BF00ED00E080B483B0B6
:10154C0000AF0346FB7197F90730002B0BDBFB79DF
:10155C0003F01F02064997F907305B09012000FAD6
:10156C0002F241F8232000BF0C37BD4680BC704707
:10157C0000E100E080B483B000AF03463960FB713A
:10158C0097F90730002B0ADB3B68DAB20C4997F964
:10159C0007301201D2B20B4483F800230AE03B68F7
:1015AC00DAB20849FB7903F00F03043B1201D2B203
:1015BC000B441A7600BF0C37BD4680BC704700BF89
:1015CC0000E100E000ED00E080B489B000AFF8600D
:1015DC00B9607A60FB6803F00703FB61FB69C3F138
:1015EC000703042B28BF0423BB61FB690433062BC0
:1015FC0002D9FB69033B00E000237B614FF0FF3213
:10160C00BB6902FA03F3DA43BB681A407B699A4060
:10161C004FF0FF317B6901FA03F3D9437B680B4030
:10162C00134318462437BD4680BC704780B582B042
:10163C0000AF78607B68013BB3F1807F01D301235D
:10164C000FE00A4A7B68013B53600F214FF0FF30DB
:10165C00FFF790FF054B00229A60044B07221A609B
:10166C00002318460837BD4680BD00BF10E000E0DF
:10167C0080B582B000AF78607868FFF72DFF00BFAF
:10168C000837BD4680BD80B586B000AF0346B96053
:10169C007A60FB7300237B61FFF742FF78617A6805
:1016AC00B9687869FFF790FF024697F90F30114639
:1016BC001846FFF75FFF00BF1837BD4680BD80B5E9
:1016CC0082B000AF0346FB7197F907301846FFF75D
:1016DC0035FF00BF0837BD4680BD80B582B000AF76
:1016EC0078607868FFF7A2FF034618460837BD46B6
:1016FC0080BD000080B48BB000AF786039600023EF
:10170C007B6200233B6269E101227B6A02FA03F3EC
:10171C00FB613B681B68FA691340BB61BA69FB69E2
:10172C009A4240F058813B685B689A4A93425ED07B
:10173C00984A934275D8984A934258D0964A934205
:10174C006FD8964A934252D0944A934269D8944A9D
:10175C0093424CD0924A934263D8924A934246D0D9
:10176C00904A93425DD8122B2AD8122B59D801A239
:10177C0052F823F0FB170008D5170008E7170008EC
:10178C00291800082F1800082F1800082F18000817
:10179C002F1800082F1800082F1800082F18000801
:1017AC002F1800082F1800082F1800082F180008F1
:1017BC002F1800082F180008DD170008F117000873
:1017CC00794A934213D02CE03B68DB683B6229E0FA
:1017DC003B68DB6804333B6224E03B68DB6808331E
:1017EC003B621FE03B68DB680C333B621AE03B68F2
:1017FC009B68002B02D104233B6213E03B689B687F
:10180C00012B05D108233B627B68FA691A6109E058
:10181C0008233B627B68FA695A6103E000233B6250
:10182C0000E000BFBB69FF2B01D87B6801E07B683F
:10183C0004337B61BB69FF2B02D87B6A9B0002E0FF
:10184C007B6A083B9B003B617B691A680F213B69F3
:10185C0001FA03F3DB431A40396A3B6901FA03F3DB
:10186C001A437B691A603B685B6803F08053002B5A
:10187C0000F0B1804D4B9B694C4A43F001039361DE
:10188C004A4B9B6903F00103BB60BB68484A7B6A07
:10189C009B08023352F82330FB607B6A03F003038E
:1018AC009B000F2202FA03F3DB43FA681340FB6040
:1018BC007B68404A934213D07B683F4A93420DD0D9
:1018CC007B683E4A934207D07B683D4A934201D1E4
:1018DC00032306E0042304E0022302E0012300E0DA
:1018EC0000237A6A02F0030292009340FA681343D1
:1018FC00FB602F497B6A9B080233FA6841F823206E
:10190C003B685B6803F48033002B06D02D4B1A68C0
:10191C002C49BB6913430B6006E02A4B1A68BB6960
:10192C00DB43284913400B603B685B6803F40033CE
:10193C00002B06D0234B5A682249BB6913434B60DA
:10194C0006E0204B5A68BB69DB431E4913404B60D1
:10195C003B685B6803F48013002B06D0194B9A6824
:10196C001849BB6913438B6006E0164B9A68BB6938
:10197C00DB43144913408B603B685B6803F4001332
:10198C00002B21D00F4BDA680E49BB691343CB6097
:10199C0021E000BF000032100000311000002210C6
:1019AC000000211000001210000011100010024065
:1019BC000000014000080140000C014000100140F3
:1019CC0000140140000401400B4BDA68BB69DB4397
:1019DC0009491340CB607B6A01337B623B681A6810
:1019EC007B6A22FA03F3002B7FF48EAE00BF00BF9C
:1019FC002C37BD4680BC70470004014080B485B0D4
:101A0C0000AF78600B467B807B689A687B881340BC
:101A1C00002B02D00123FB7301E00023FB73FB7B43
:101A2C0018461437BD4680BC704780B483B000AFF5
:101A3C0078600B467B8013467B707B78002B03D041
:101A4C007A887B681A6103E07B881A047B681A61C8
:101A5C0000BF0C37BD4680BC704780B485B000AF6A
:101A6C0078600B467B807B68DB68FB607A88FB6860
:101A7C0013401A04FB68D9437B880B401A437B68DC
:101A8C001A6100BF1437BD4680BC704780B586B064
:101A9C0000AF78607B68002B01D1012372E27B6878
:101AAC001B6803F00103002B00F08780924B5B68EE
:101ABC0003F00C03042B0CD08F4B5B6803F00C036E
:101ACC00082B12D18C4B5B6803F48033B3F5803F49
:101ADC000BD1894B1B6803F40033002B6CD07B6853
:101AEC005B68002B68D101234CE27B685B68B3F523
:101AFC00803F06D1804B1B687F4A43F480331360D0
:101B0C002EE07B685B68002B0CD17B4B1B687A4A00
:101B1C0023F480331360784B1B68774A23F48023BB
:101B2C0013601DE07B685B68B3F5A02F0CD1724B82
:101B3C001B68714A43F4802313606F4B1B686E4A19
:101B4C0043F4803313600BE06B4B1B686A4A23F43D
:101B5C0080331360684B1B68674A23F4802313603F
:101B6C007B685B68002B13D0FFF7ACFC386108E096
:101B7C00FFF7A8FC02463B69D31A642B01D9032357
:101B8C0000E25D4B1B6803F40033002BF0D014E033
:101B9C00FFF798FC386108E0FFF794FC02463B69BC
:101BAC00D31A642B01D90323ECE1534B1B6803F4C8
:101BBC000033002BF0D100E000BF7B681B6803F002
:101BCC000203002B63D04C4B5B6803F00C03002B1F
:101BDC000BD0494B5B6803F00C03082B1CD1464B14
:101BEC005B6803F48033002B16D1434B1B6803F066
:101BFC000203002B05D07B681B69012B01D001234C
:101C0C00C0E13D4B1B6823F0F8027B685B69DB008D
:101C1C00394913430B603AE07B681B69002B20D0D9
:101C2C00364B01221A60FFF74DFC386108E0FFF7D4
:101C3C0049FC02463B69D31A022B01D90323A1E1CB
:101C4C002D4B1B6803F00203002BF0D02A4B1B68B2
:101C5C0023F0F8027B685B69DB00274913430B60B8
:101C6C0015E0264B00221A60FFF72CFC386108E0C7
:101C7C00FFF728FC02463B69D31A022B01D9032338
:101C8C0080E11D4B1B6803F00203002BF0D17B6835
:101C9C001B6803F00803002B3AD07B689B69002B70
:101CAC0019D0174B01221A60FFF70CFC386108E0C1
:101CBC00FFF708FC02463B69D31A022B01D9032318
:101CCC0060E10D4B5B6A03F00203002BF0D00120A6
:101CDC0000F0A6FA1CE00A4B00221A60FFF7F2FB98
:101CEC0038610FE0FFF7EEFB02463B69D31A022B7B
:101CFC0008D9032346E100BF001002400000424215
:101D0C0080044242924B5B6A03F00203002BE9D140
:101D1C007B681B6803F00403002B00F0A6800023F3
:101D2C00FB758B4BDB6903F08053002B0DD1884B7B
:101D3C00DB69874A43F08053D361854BDB6903F041
:101D4C008053BB60BB680123FB75824B1B6803F49B
:101D5C008073002B18D17F4B1B687E4A43F4807331
:101D6C001360FFF7AFFB386108E0FFF7ABFB0246EF
:101D7C003B69D31A642B01D9032303E1754B1B6810
:101D8C0003F48073002BF0D07B68DB68012B06D149
:101D9C006F4B1B6A6E4A43F0010313622DE07B68A4
:101DAC00DB68002B0CD16A4B1B6A694A23F00103D8
:101DBC001362674B1B6A664A23F0040313621CE030
:101DCC007B68DB68052B0CD1614B1B6A604A43F0C6
:101DDC00040313625E4B1B6A5D4A43F001031362FA
:101DEC000BE05B4B1B6A5A4A23F001031362584BFE
:101DFC001B6A574A23F0040313627B68DB68002BD1
:101E0C0015D0FFF75FFB38610AE0FFF75BFB02467A
:101E1C003B69D31A41F28832934201D90323B1E0D2
:101E2C004B4B1B6A03F00203002BEED014E0FFF7C0
:101E3C0049FB38610AE0FFF745FB02463B69D31AC0
:101E4C0041F28832934201D903239BE0404B1B6A39
:101E5C0003F00203002BEED1FB7D012B05D13C4B93
:101E6C00DB693B4A23F08053D3617B68DB69002B31
:101E7C0000F08780364B5B6803F00C03082B61D0B5
:101E8C007B68DB69022B46D1334B00221A60FFF7CB
:101E9C0019FB386108E0FFF715FB02463B69D31AC2
:101EAC00022B01D903236DE0294B1B6803F000734F
:101EBC00002BF0D17B681B6AB3F5803F08D1244B13
:101ECC005B6823F400327B689B68214913434B60A9
:101EDC001F4B5B6823F474127B68196A7B685B6A1E
:101EEC000B431B4913434B601B4B01221A60FFF73A
:101EFC00E9FA386108E0FFF7E5FA02463B69D31AC4
:101F0C00022B01D903233DE0114B1B6803F0007336
:101F1C00002BF0D035E0104B00221A60FFF7D2FAFC
:101F2C00386108E0FFF7CEFA02463B69D31A022B60
:101F3C0001D9032326E0064B1B6803F00073002B2A
:101F4C00F0D11EE07B68DB69012B07D1012319E07E
:101F5C000010024000700040600042420B4B5B6876
:101F6C00FB60FB6803F480327B681B6A9A4206D1E3
:101F7C00FB6803F470127B685B6A9A4201D0012300
:101F8C0000E0002318461837BD4680BD0010024003
:101F9C0080B584B000AF786039607B68002B01D1CC
:101FAC000123D0E06A4B1B6803F007033A689A429E
:101FBC0010D9674B1B6823F0070265493B68134334
:101FCC000B60634B1B6803F007033A689A4201D01D
:101FDC000123B8E07B681B6803F00203002B20D0C0
:101FEC007B681B6803F00403002B05D0594B5B681E
:101FFC00584A43F4E06353607B681B6803F00803A2
:10200C00002B05D0534B5B68524A43F4605353602A
:10201C00504B5B6823F0F0027B689B684D4913437F
:10202C004B607B681B6803F00103002B40D07B687E
:10203C005B68012B07D1474B1B6803F40033002B63
:10204C0015D101237FE07B685B68022B07D1414BE4
:10205C001B6803F00073002B09D1012373E03D4B87
:10206C001B6803F00203002B01D101236BE0394BF9
:10207C005B6823F003027B685B68364913434B6053
:10208C00FFF720FAF8600AE0FFF71CFA0246FB683B
:10209C00D31A41F28832934201D9032353E02D4BDA
:1020AC005B6803F00C027B685B689B009A42EBD187
:1020BC00274B1B6803F007033A689A4210D2244B53
:1020CC001B6823F0070222493B6813430B60204B2B
:1020DC001B6803F007033A689A4201D0012332E0EF
:1020EC007B681B6803F00403002B08D0194B5B685A
:1020FC0023F4E0627B68DB68164913434B607B6812
:10210C001B6803F00803002B09D0124B5B6823F407
:10211C0060527B681B69DB000E4913434B6000F077
:10212C0021F802460B4B5B681B0903F00F030A49AD
:10213C00CB5C22FA03F3094A1360094B1B6818465F
:10214C00FFF77EF9002318461037BD4680BD00BF4F
:10215C000020024000100240842B00081C000020CC
:10216C002000002090B48AB000AF294B3C1D0FCB4F
:10217C0084E80F0040F201233B800023FB61002325
:10218C00BB6100237B6200237B6100233B62214BFC
:10219C005B68FB61FB6903F00C03042B02D0082B7A
:1021AC0003D02BE01C4B3B622BE0FB699B0C03F038
:1021BC000F0328333B4413F8243C7B61FB6903F485
:1021CC008033002B12D0134B5B685B0C03F00103C4
:1021DC0028333B4413F8283CBB617B690E4A03FB54
:1021EC0002F2BB69B2FBF3F37B6204E07B690B4A3E
:1021FC0002FB03F37B627B6A3B6202E0064B3B62B1
:10220C0000BF3B6A18462837BD4690BC704700BFDC
:10221C00742B00080010024000127A0000093D00E7
:10222C0080B485B000AF78600A4B1B680A4AA2FBE9
:10223C0003235B0A7A6802FB03F3FB6000BFFB68B5
:10224C005A1EFA60002BF9D100BF00BF1437BD46EF
:10225C0080BC70471C000020D34D621080B582B04A
:10226C0000AF78607B68002B01D1012341E07B68D3
:10227C0093F83D30DBB2002B06D17B68002283F84B
:10228C003C207868FFF732F87B68022283F83D2007
:10229C007B681A687B6804331946104600F070FAA4
:1022AC007B68012283F846207B68012283F83E205C
:1022BC007B68012283F83F207B68012283F8402051
:1022CC007B68012283F841207B68012283F842203D
:1022DC007B68012283F843207B68012283F8442029
:1022EC007B68012283F845207B68012283F83D201E
:1022FC00002318460837BD4680BD000080B485B069
:10230C0000AF78607B6893F83D30DBB2012B01D0D5
:10231C0001233AE07B68022283F83D207B681B682E
:10232C00DA687B681B6842F00102DA607B681B6824
:10233C00184A93420ED07B681B68B3F1804F09D0CA
:10234C007B681B68144A934204D07B681B68134A51
:10235C00934211D17B681B689B6803F00703FB60F9
:10236C00FB68062B10D07B681B681A687B681B689F
:10237C0042F001021A6007E07B681B681A687B68F0
:10238C001B6842F001021A60002318461437BD4640
:10239C0080BC7047002C0140000400400008004045
:1023AC0080B582B000AF78607B681B681B6903F056
:1023BC000203022B22D17B681B68DB6803F002034B
:1023CC00022B1BD17B681B686FF002021A617B68C1
:1023DC0001221A777B681B689B6903F00303002BAF
:1023EC0003D0786800F0B1F905E0786800F0A4F942
:1023FC00786800F0B3F97B6800221A777B681B6859
:10240C001B6903F00403042B22D17B681B68DB6877
:10241C0003F00403042B1BD17B681B686FF00402D0
:10242C001A617B6802221A777B681B689B6903F42C
:10243C004073002B03D0786800F087F905E07868CA
:10244C0000F07AF9786800F089F97B6800221A7735
:10245C007B681B681B6903F00803082B22D17B687F
:10246C001B68DB6803F00803082B1BD17B681B6817
:10247C006FF008021A617B6804221A777B681B686C
:10248C00DB6903F00303002B03D0786800F05DF9DF
:10249C0005E0786800F050F9786800F05FF97B6827
:1024AC0000221A777B681B681B6903F01003102B42
:1024BC0022D17B681B68DB6803F01003102B1BD147
:1024CC007B681B686FF010021A617B6808221A7710
:1024DC007B681B68DB6903F44073002B03D07868BE
:1024EC0000F033F905E0786800F026F9786800F020
:1024FC0035F97B6800221A777B681B681B6903F02F
:10250C000103012B0ED17B681B68DB6803F0010310
:10251C00012B07D17B681B686FF001021A61786888
:10252C00FEF740FF7B681B681B6903F08003802B60
:10253C000ED17B681B68DB6803F08003802B07D10E
:10254C007B681B686FF080021A61786800F077FA7C
:10255C007B681B681B6903F04003402B0ED17B6822
:10256C001B68DB6803F04003402B07D17B681B68BA
:10257C006FF040021A61786800F0F9F87B681B680C
:10258C001B6903F02003202B0ED17B681B68DB68D2
:10259C0003F02003202B07D17B681B686FF020020F
:1025AC001A61786800F042FA00BF0837BD4680BD5A
:1025BC0080B584B000AF786039607B6893F83C30AC
:1025CC00012B01D10223B3E07B68012283F83C206C
:1025DC007B68022283F83D207B681B689B68FB604C
:1025EC00FB6823F07703FB60FB6823F47F43FB60FD
:1025FC007B681B68FA689A603B681B68B3F5005FE0
:10260C003ED0B3F5005F00F28780B3F5805F00F039
:10261C008580B3F5805F7FD8702B1AD0702B7BD858
:10262C00602B50D0602B77D8502B3CD0502B73D8CC
:10263C00402B58D0402B6FD8302B64D0302B6BD81C
:10264C00202B60D0202B67D8002B5CD0102B5AD0BD
:10265C0062E07B6818683B6899683B685A683B681D
:10266C00DB6800F066F97B681B689B68FB60FB68A5
:10267C0043F07703FB607B681B68FA689A604EE056
:10268C007B6818683B6899683B685A683B68DB68EC
:10269C0000F04FF97B681B689A687B681B6842F4F2
:1026AC0080429A603BE07B6818683B6859683B68DD
:1026BC00DB681A4600F0C6F87B681B685021184688
:1026CC0000F01DF92BE07B6818683B6859683B6883
:1026DC00DB681A4600F0E4F87B681B68602118463A
:1026EC0000F00DF91BE07B6818683B6859683B6883
:1026FC00DB681A4600F0A6F87B681B684021184678
:10270C0000F0FDF80BE07B681A683B681B68194603
:10271C00104600F0F4F802E000BF00E000BF7B6858
:10272C00012283F83D207B68002283F83C200023A3
:10273C0018461037BD4680BD80B483B000AF7860BA
:10274C0000BF0C37BD4680BC704780B483B000AF6F
:10275C00786000BF0C37BD4680BC704780B483B036
:10276C0000AF786000BF0C37BD4680BC704780B4AA
:10277C0083B000AF786000BF0C37BD4680BC70479B
:10278C0080B485B000AF786039607B681B68FB60F3
:10279C007B68294A93420BD07B68B3F1804F07D0FA
:1027AC007B68264A934203D07B68254A934208D122
:1027BC00FB6823F07003FB603B685B68FA681343AB
:1027CC00FB607B681C4A93420BD07B68B3F1804F53
:1027DC0007D07B68194A934203D07B68184A93420E
:1027EC0008D1FB6823F44073FB603B68DB68FA6834
:1027FC001343FB60FB6823F080023B685B69134367
:10280C00FB607B68FA681A603B689A687B68DA62DE
:10281C003B681A687B689A627B68074A934203D1CB
:10282C003B681A697B681A637B6801225A6100BF96
:10283C001437BD4680BC7047002C0140000400409A
:10284C000008004080B487B000AFF860B9607A60CF
:10285C00FB681B6A7B61FB681B6A23F00102FB6847
:10286C001A62FB689B693B613B6923F0F0033B6197
:10287C007B681B013A6913433B617B6923F00A03B4
:10288C007B617A69BB6813437B61FB683A699A6127
:10289C00FB687A691A6200BF1C37BD4680BC704762
:1028AC0080B487B000AFF860B9607A60FB681B6ACF
:1028BC0023F01002FB681A62FB689B697B61FB6862
:1028CC001B6A3B617B6923F470437B617B681B0350
:1028DC007A6913437B613B6923F0A0033B61BB68BE
:1028EC001B013A6913433B61FB687A699A61FB6887
:1028FC003A691A6200BF1C37BD4680BC704780B471
:10290C0085B000AF786039607B689B68FB60FB68C2
:10291C0023F07003FB603A68FB68134343F0070332
:10292C00FB607B68FA689A6000BF1437BD4680BCB8
:10293C00704780B487B000AFF860B9607A603B60D4
:10294C00FB689B687B617B6923F47F437B613B68FD
:10295C001A027B681A43BB6813437A6913437B6181
:10296C00FB687A699A6000BF1C37BD4680BC704713
:10297C0080B485B000AF786039607B6893F83C30E8
:10298C00012B01D1022346E07B68012283F83C2015
:10299C007B68022283F83D207B681B685B68FB60C8
:1029AC007B681B689B68BB60FB6823F07003FB6053
:1029BC003B681B68FA681343FB607B681B68FA680A
:1029CC005A607B681B68164A93420ED07B681B6862
:1029DC00B3F1804F09D07B681B68124A934204D034
:1029EC007B681B68104A93420CD1BB6823F08003B0
:1029FC00BB603B685B68BA681343BB607B681B6851
:102A0C00BA689A607B68012283F83D207B680022BB
:102A1C0083F83C20002318461437BD4680BC704711
:102A2C00002C0140000400400008004080B483B03A
:102A3C0000AF786000BF0C37BD4680BC704780B4D7
:102A4C0083B000AF786000BF0C37BD4680BC7047C8
:102A5C0070B500260C4D0D4C641BA410A64209D178
:102A6C0000F022F800260A4D0A4C641BA410A64262
:102A7C0005D170BD55F8043B98470136EEE755F883
:102A8C00043B98470136F2E7942B0008942B00087E
:102A9C00942B0008982B000803460244934200D163
:102AAC00704703F8011BF9E7F8B500BFF8BC08BC88
:102ABC009E467047F8B500BFF8BC08BC9E467047F0
:102ACC0001000000000000000000000001000000F8
:102ADC0001000000010000000100000000000000E7
:102AEC0000000000010000000000000000000000D9
:102AFC0001000000000000000000000000000000C9
:102B0C0000000000000000000100000001000000B7
:102B1C0000000000010000000000000000000000A8
:102B2C000100000001000000000000000000000097
:102B3C000000000001000000000000000000000088
:102B4C000100000000000000000000000000000078
:102B5C000000000000000000010000000100000067
:102B6C00010000000100000002030405060708092B
:102B7C000A0B0C0D0E0F10100000000000000000DE
:082B8C00010203040607080919
:042B94003101000803
:042B98000D01000823
:102B9C00070000000200000004000000010000001B
:102BAC000101010101010101010101010024F400F5
:082BBC00100000000100000000
:04000005080013D507
:00000001FF
